{
  "address": "0x7e342a6A869Be9E5B88D3310B026C7B45d358e78",
  "abi": [
    {
      "inputs": [],
      "stateMutability": "payable",
      "type": "constructor"
    },
    {
      "inputs": [
        {
          "internalType": "address",
          "name": "sender",
          "type": "address"
        },
        {
          "internalType": "uint256",
          "name": "tokenId",
          "type": "uint256"
        },
        {
          "internalType": "address",
          "name": "owner",
          "type": "address"
        }
      ],
      "name": "ERC721IncorrectOwner",
      "type": "error"
    },
    {
      "inputs": [
        {
          "internalType": "address",
          "name": "operator",
          "type": "address"
        },
        {
          "internalType": "uint256",
          "name": "tokenId",
          "type": "uint256"
        }
      ],
      "name": "ERC721InsufficientApproval",
      "type": "error"
    },
    {
      "inputs": [
        {
          "internalType": "address",
          "name": "approver",
          "type": "address"
        }
      ],
      "name": "ERC721InvalidApprover",
      "type": "error"
    },
    {
      "inputs": [
        {
          "internalType": "address",
          "name": "operator",
          "type": "address"
        }
      ],
      "name": "ERC721InvalidOperator",
      "type": "error"
    },
    {
      "inputs": [
        {
          "internalType": "address",
          "name": "owner",
          "type": "address"
        }
      ],
      "name": "ERC721InvalidOwner",
      "type": "error"
    },
    {
      "inputs": [
        {
          "internalType": "address",
          "name": "receiver",
          "type": "address"
        }
      ],
      "name": "ERC721InvalidReceiver",
      "type": "error"
    },
    {
      "inputs": [
        {
          "internalType": "address",
          "name": "sender",
          "type": "address"
        }
      ],
      "name": "ERC721InvalidSender",
      "type": "error"
    },
    {
      "inputs": [
        {
          "internalType": "uint256",
          "name": "tokenId",
          "type": "uint256"
        }
      ],
      "name": "ERC721NonexistentToken",
      "type": "error"
    },
    {
      "inputs": [
        {
          "internalType": "address",
          "name": "owner",
          "type": "address"
        }
      ],
      "name": "OwnableInvalidOwner",
      "type": "error"
    },
    {
      "inputs": [
        {
          "internalType": "address",
          "name": "account",
          "type": "address"
        }
      ],
      "name": "OwnableUnauthorizedAccount",
      "type": "error"
    },
    {
      "anonymous": false,
      "inputs": [
        {
          "indexed": true,
          "internalType": "address",
          "name": "owner",
          "type": "address"
        },
        {
          "indexed": true,
          "internalType": "address",
          "name": "approved",
          "type": "address"
        },
        {
          "indexed": true,
          "internalType": "uint256",
          "name": "tokenId",
          "type": "uint256"
        }
      ],
      "name": "Approval",
      "type": "event"
    },
    {
      "anonymous": false,
      "inputs": [
        {
          "indexed": true,
          "internalType": "address",
          "name": "owner",
          "type": "address"
        },
        {
          "indexed": true,
          "internalType": "address",
          "name": "operator",
          "type": "address"
        },
        {
          "indexed": false,
          "internalType": "bool",
          "name": "approved",
          "type": "bool"
        }
      ],
      "name": "ApprovalForAll",
      "type": "event"
    },
    {
      "anonymous": false,
      "inputs": [
        {
          "indexed": true,
          "internalType": "address",
          "name": "previousOwner",
          "type": "address"
        },
        {
          "indexed": true,
          "internalType": "address",
          "name": "newOwner",
          "type": "address"
        }
      ],
      "name": "OwnershipTransferred",
      "type": "event"
    },
    {
      "anonymous": false,
      "inputs": [
        {
          "indexed": true,
          "internalType": "address",
          "name": "from",
          "type": "address"
        },
        {
          "indexed": true,
          "internalType": "address",
          "name": "to",
          "type": "address"
        },
        {
          "indexed": true,
          "internalType": "uint256",
          "name": "tokenId",
          "type": "uint256"
        }
      ],
      "name": "Transfer",
      "type": "event"
    },
    {
      "inputs": [
        {
          "internalType": "address",
          "name": "to",
          "type": "address"
        },
        {
          "internalType": "uint256",
          "name": "tokenId",
          "type": "uint256"
        }
      ],
      "name": "approve",
      "outputs": [],
      "stateMutability": "nonpayable",
      "type": "function"
    },
    {
      "inputs": [
        {
          "internalType": "address",
          "name": "owner",
          "type": "address"
        }
      ],
      "name": "balanceOf",
      "outputs": [
        {
          "internalType": "uint256",
          "name": "",
          "type": "uint256"
        }
      ],
      "stateMutability": "view",
      "type": "function"
    },
    {
      "inputs": [
        {
          "internalType": "uint256",
          "name": "tokenId",
          "type": "uint256"
        }
      ],
      "name": "getApproved",
      "outputs": [
        {
          "internalType": "address",
          "name": "",
          "type": "address"
        }
      ],
      "stateMutability": "view",
      "type": "function"
    },
    {
      "inputs": [
        {
          "internalType": "address",
          "name": "owner",
          "type": "address"
        },
        {
          "internalType": "address",
          "name": "operator",
          "type": "address"
        }
      ],
      "name": "isApprovedForAll",
      "outputs": [
        {
          "internalType": "bool",
          "name": "",
          "type": "bool"
        }
      ],
      "stateMutability": "view",
      "type": "function"
    },
    {
      "inputs": [],
      "name": "isPublicMintEnabled",
      "outputs": [
        {
          "internalType": "bool",
          "name": "",
          "type": "bool"
        }
      ],
      "stateMutability": "view",
      "type": "function"
    },
    {
      "inputs": [],
      "name": "maxPerWallet",
      "outputs": [
        {
          "internalType": "uint256",
          "name": "",
          "type": "uint256"
        }
      ],
      "stateMutability": "view",
      "type": "function"
    },
    {
      "inputs": [],
      "name": "maxSupply",
      "outputs": [
        {
          "internalType": "uint256",
          "name": "",
          "type": "uint256"
        }
      ],
      "stateMutability": "view",
      "type": "function"
    },
    {
      "inputs": [
        {
          "internalType": "uint256",
          "name": "quantity",
          "type": "uint256"
        }
      ],
      "name": "mint",
      "outputs": [],
      "stateMutability": "payable",
      "type": "function"
    },
    {
      "inputs": [],
      "name": "mintPrice",
      "outputs": [
        {
          "internalType": "uint256",
          "name": "",
          "type": "uint256"
        }
      ],
      "stateMutability": "view",
      "type": "function"
    },
    {
      "inputs": [],
      "name": "name",
      "outputs": [
        {
          "internalType": "string",
          "name": "",
          "type": "string"
        }
      ],
      "stateMutability": "view",
      "type": "function"
    },
    {
      "inputs": [],
      "name": "owner",
      "outputs": [
        {
          "internalType": "address",
          "name": "",
          "type": "address"
        }
      ],
      "stateMutability": "view",
      "type": "function"
    },
    {
      "inputs": [
        {
          "internalType": "uint256",
          "name": "tokenId",
          "type": "uint256"
        }
      ],
      "name": "ownerOf",
      "outputs": [
        {
          "internalType": "address",
          "name": "",
          "type": "address"
        }
      ],
      "stateMutability": "view",
      "type": "function"
    },
    {
      "inputs": [],
      "name": "renounceOwnership",
      "outputs": [],
      "stateMutability": "nonpayable",
      "type": "function"
    },
    {
      "inputs": [
        {
          "internalType": "address",
          "name": "from",
          "type": "address"
        },
        {
          "internalType": "address",
          "name": "to",
          "type": "address"
        },
        {
          "internalType": "uint256",
          "name": "tokenId",
          "type": "uint256"
        }
      ],
      "name": "safeTransferFrom",
      "outputs": [],
      "stateMutability": "nonpayable",
      "type": "function"
    },
    {
      "inputs": [
        {
          "internalType": "address",
          "name": "from",
          "type": "address"
        },
        {
          "internalType": "address",
          "name": "to",
          "type": "address"
        },
        {
          "internalType": "uint256",
          "name": "tokenId",
          "type": "uint256"
        },
        {
          "internalType": "bytes",
          "name": "data",
          "type": "bytes"
        }
      ],
      "name": "safeTransferFrom",
      "outputs": [],
      "stateMutability": "nonpayable",
      "type": "function"
    },
    {
      "inputs": [
        {
          "internalType": "address",
          "name": "operator",
          "type": "address"
        },
        {
          "internalType": "bool",
          "name": "approved",
          "type": "bool"
        }
      ],
      "name": "setApprovalForAll",
      "outputs": [],
      "stateMutability": "nonpayable",
      "type": "function"
    },
    {
      "inputs": [
        {
          "internalType": "string",
          "name": "_baseTokenURI",
          "type": "string"
        }
      ],
      "name": "setBaseTokenURI",
      "outputs": [],
      "stateMutability": "nonpayable",
      "type": "function"
    },
    {
      "inputs": [
        {
          "internalType": "bool",
          "name": "_isPublicMintEnabled",
          "type": "bool"
        }
      ],
      "name": "setIsPublicMintEnabled",
      "outputs": [],
      "stateMutability": "nonpayable",
      "type": "function"
    },
    {
      "inputs": [
        {
          "internalType": "uint256",
          "name": "_maxSupply",
          "type": "uint256"
        }
      ],
      "name": "setMaxSupply",
      "outputs": [],
      "stateMutability": "nonpayable",
      "type": "function"
    },
    {
      "inputs": [
        {
          "internalType": "uint256",
          "name": "_mintPrice",
          "type": "uint256"
        }
      ],
      "name": "setMintPrice",
      "outputs": [],
      "stateMutability": "nonpayable",
      "type": "function"
    },
    {
      "inputs": [
        {
          "internalType": "address",
          "name": "_withdrawWallet",
          "type": "address"
        }
      ],
      "name": "setWithdrawWallet",
      "outputs": [],
      "stateMutability": "nonpayable",
      "type": "function"
    },
    {
      "inputs": [
        {
          "internalType": "bytes4",
          "name": "interfaceId",
          "type": "bytes4"
        }
      ],
      "name": "supportsInterface",
      "outputs": [
        {
          "internalType": "bool",
          "name": "",
          "type": "bool"
        }
      ],
      "stateMutability": "view",
      "type": "function"
    },
    {
      "inputs": [],
      "name": "symbol",
      "outputs": [
        {
          "internalType": "string",
          "name": "",
          "type": "string"
        }
      ],
      "stateMutability": "view",
      "type": "function"
    },
    {
      "inputs": [
        {
          "internalType": "uint256",
          "name": "tokenId",
          "type": "uint256"
        }
      ],
      "name": "tokenURI",
      "outputs": [
        {
          "internalType": "string",
          "name": "",
          "type": "string"
        }
      ],
      "stateMutability": "view",
      "type": "function"
    },
    {
      "inputs": [],
      "name": "totalSupply",
      "outputs": [
        {
          "internalType": "uint256",
          "name": "",
          "type": "uint256"
        }
      ],
      "stateMutability": "view",
      "type": "function"
    },
    {
      "inputs": [
        {
          "internalType": "address",
          "name": "from",
          "type": "address"
        },
        {
          "internalType": "address",
          "name": "to",
          "type": "address"
        },
        {
          "internalType": "uint256",
          "name": "tokenId",
          "type": "uint256"
        }
      ],
      "name": "transferFrom",
      "outputs": [],
      "stateMutability": "nonpayable",
      "type": "function"
    },
    {
      "inputs": [
        {
          "internalType": "address",
          "name": "newOwner",
          "type": "address"
        }
      ],
      "name": "transferOwnership",
      "outputs": [],
      "stateMutability": "nonpayable",
      "type": "function"
    },
    {
      "inputs": [
        {
          "internalType": "address",
          "name": "",
          "type": "address"
        }
      ],
      "name": "walletMinted",
      "outputs": [
        {
          "internalType": "uint256",
          "name": "",
          "type": "uint256"
        }
      ],
      "stateMutability": "view",
      "type": "function"
    },
    {
      "inputs": [],
      "name": "withdraw",
      "outputs": [],
      "stateMutability": "nonpayable",
      "type": "function"
    },
    {
      "inputs": [],
      "name": "withdrawWallet",
      "outputs": [
        {
          "internalType": "address payable",
          "name": "",
          "type": "address"
        }
      ],
      "stateMutability": "view",
      "type": "function"
    }
  ],
  "transactionHash": "0x01f46166739c1479b3c739b18410ac9be7a2ba0441659e5590ee6422eee419e8",
  "args": [],
  "numDeployments": 2,
  "solcInputHash": "25702e5dba1409f305c8591db8f32ec1",
  "bytecode": "0x6080604052336040518060400160405280600981526020017f526f626f50756e6b7300000000000000000000000000000000000000000000008152506040518060400160405280600281526020017f525000000000000000000000000000000000000000000000000000000000000081525081600090816100809190610472565b5080600190816100909190610472565b505050600073ffffffffffffffffffffffffffffffffffffffff168173ffffffffffffffffffffffffffffffffffffffff16036101055760006040517f1e4fbdf70000000000000000000000000000000000000000000000000000000081526004016100fc9190610585565b60405180910390fd5b6101148161015c60201b60201c565b5066470de4df82000060088190555060006007819055506103e86009819055506003600a819055506000600b60006101000a81548160ff0219169083151502179055506105a0565b6000600660009054906101000a900473ffffffffffffffffffffffffffffffffffffffff16905081600660006101000a81548173ffffffffffffffffffffffffffffffffffffffff021916908373ffffffffffffffffffffffffffffffffffffffff1602179055508173ffffffffffffffffffffffffffffffffffffffff168173ffffffffffffffffffffffffffffffffffffffff167f8be0079c531659141344cd1fd0a4f28419497f9722a3daafe3b4186f6b6457e060405160405180910390a35050565b600081519050919050565b7f4e487b7100000000000000000000000000000000000000000000000000000000600052604160045260246000fd5b7f4e487b7100000000000000000000000000000000000000000000000000000000600052602260045260246000fd5b600060028204905060018216806102a357607f821691505b6020821081036102b6576102b561025c565b5b50919050565b60008190508160005260206000209050919050565b60006020601f8301049050919050565b600082821b905092915050565b60006008830261031e7fffffffffffffffffffffffffffffffffffffffffffffffffffffffffffffffff826102e1565b61032886836102e1565b95508019841693508086168417925050509392505050565b6000819050919050565b6000819050919050565b600061036f61036a61036584610340565b61034a565b610340565b9050919050565b6000819050919050565b61038983610354565b61039d61039582610376565b8484546102ee565b825550505050565b600090565b6103b26103a5565b6103bd818484610380565b505050565b5b818110156103e1576103d66000826103aa565b6001810190506103c3565b5050565b601f821115610426576103f7816102bc565b610400846102d1565b8101602085101561040f578190505b61042361041b856102d1565b8301826103c2565b50505b505050565b600082821c905092915050565b60006104496000198460080261042b565b1980831691505092915050565b60006104628383610438565b9150826002028217905092915050565b61047b82610222565b67ffffffffffffffff8111156104945761049361022d565b5b61049e825461028b565b6104a98282856103e5565b600060209050601f8311600181146104dc57600084156104ca578287015190505b6104d48582610456565b86555061053c565b601f1984166104ea866102bc565b60005b82811015610512578489015182556001820191506020850194506020810190506104ed565b8683101561052f578489015161052b601f891682610438565b8355505b6001600288020188555050505b505050505050565b600073ffffffffffffffffffffffffffffffffffffffff82169050919050565b600061056f82610544565b9050919050565b61057f81610564565b82525050565b600060208201905061059a6000830184610576565b92915050565b612ffb806105af6000396000f3fe6080604052600436106101cd5760003560e01c806370a08231116100f7578063a22cb46511610095578063d5abeb0111610064578063d5abeb0114610653578063e985e9c51461067e578063f2fde38b146106bb578063f4a0a528146106e4576101cd565b8063a22cb46514610587578063b88d4fde146105b0578063c87b56dd146105d9578063d3738fc814610616576101cd565b80638da5cb5b116100d15780638da5cb5b146104ec5780639373f4321461051757806395d89b4114610540578063a0712d681461056b576101cd565b806370a082311461046d578063715018a6146104aa57806385d178f4146104c1576101cd565b806323b872dd1161016f578063453c23101161013e578063453c2310146103b15780636352211e146103dc5780636817c76c146104195780636f8b44b014610444576101cd565b806323b872dd1461031f57806330176e13146103485780633ccfd60b1461037157806342842e0e14610388576101cd565b8063081812fc116101ab578063081812fc14610265578063095ea7b3146102a257806318160ddd146102cb5780632373ac22146102f6576101cd565b80630116bc2d146101d257806301ffc9a7146101fd57806306fdde031461023a575b600080fd5b3480156101de57600080fd5b506101e761070d565b6040516101f49190612051565b60405180910390f35b34801561020957600080fd5b50610224600480360381019061021f91906120d8565b610720565b6040516102319190612051565b60405180910390f35b34801561024657600080fd5b5061024f610802565b60405161025c9190612195565b60405180910390f35b34801561027157600080fd5b5061028c600480360381019061028791906121ed565b610894565b604051610299919061225b565b60405180910390f35b3480156102ae57600080fd5b506102c960048036038101906102c491906122a2565b6108b0565b005b3480156102d757600080fd5b506102e06108c6565b6040516102ed91906122f1565b60405180910390f35b34801561030257600080fd5b5061031d60048036038101906103189190612338565b6108cc565b005b34801561032b57600080fd5b5061034660048036038101906103419190612365565b6108f1565b005b34801561035457600080fd5b5061036f600480360381019061036a91906124ed565b6109f3565b005b34801561037d57600080fd5b50610386610a0e565b005b34801561039457600080fd5b506103af60048036038101906103aa9190612365565b610ae7565b005b3480156103bd57600080fd5b506103c6610b07565b6040516103d391906122f1565b60405180910390f35b3480156103e857600080fd5b5061040360048036038101906103fe91906121ed565b610b0d565b604051610410919061225b565b60405180910390f35b34801561042557600080fd5b5061042e610b1f565b60405161043b91906122f1565b60405180910390f35b34801561045057600080fd5b5061046b600480360381019061046691906121ed565b610b25565b005b34801561047957600080fd5b50610494600480360381019061048f9190612536565b610b49565b6040516104a191906122f1565b60405180910390f35b3480156104b657600080fd5b506104bf610c03565b005b3480156104cd57600080fd5b506104d6610c17565b6040516104e39190612584565b60405180910390f35b3480156104f857600080fd5b50610501610c3d565b60405161050e919061225b565b60405180910390f35b34801561052357600080fd5b5061053e60048036038101906105399190612536565b610c67565b005b34801561054c57600080fd5b50610555610cb3565b6040516105629190612195565b60405180910390f35b610585600480360381019061058091906121ed565b610d45565b005b34801561059357600080fd5b506105ae60048036038101906105a9919061259f565b610f94565b005b3480156105bc57600080fd5b506105d760048036038101906105d29190612680565b610faa565b005b3480156105e557600080fd5b5061060060048036038101906105fb91906121ed565b610fcf565b60405161060d9190612195565b60405180910390f35b34801561062257600080fd5b5061063d60048036038101906106389190612536565b611039565b60405161064a91906122f1565b60405180910390f35b34801561065f57600080fd5b50610668611051565b60405161067591906122f1565b60405180910390f35b34801561068a57600080fd5b506106a560048036038101906106a09190612703565b611057565b6040516106b29190612051565b60405180910390f35b3480156106c757600080fd5b506106e260048036038101906106dd9190612536565b6110eb565b005b3480156106f057600080fd5b5061070b600480360381019061070691906121ed565b611171565b005b600b60009054906101000a900460ff1681565b60007f80ac58cd000000000000000000000000000000000000000000000000000000007bffffffffffffffffffffffffffffffffffffffffffffffffffffffff1916827bffffffffffffffffffffffffffffffffffffffffffffffffffffffff191614806107eb57507f5b5e139f000000000000000000000000000000000000000000000000000000007bffffffffffffffffffffffffffffffffffffffffffffffffffffffff1916827bffffffffffffffffffffffffffffffffffffffffffffffffffffffff1916145b806107fb57506107fa82611183565b5b9050919050565b60606000805461081190612772565b80601f016020809104026020016040519081016040528092919081815260200182805461083d90612772565b801561088a5780601f1061085f5761010080835404028352916020019161088a565b820191906000526020600020905b81548152906001019060200180831161086d57829003601f168201915b5050505050905090565b600061089f826111ed565b506108a982611275565b9050919050565b6108c282826108bd6112b2565b6112ba565b5050565b60075481565b6108d46112cc565b80600b60006101000a81548160ff02191690831515021790555050565b600073ffffffffffffffffffffffffffffffffffffffff168273ffffffffffffffffffffffffffffffffffffffff16036109635760006040517f64a0ae9200000000000000000000000000000000000000000000000000000000815260040161095a919061225b565b60405180910390fd5b600061097783836109726112b2565b611353565b90508373ffffffffffffffffffffffffffffffffffffffff168173ffffffffffffffffffffffffffffffffffffffff16146109ed578382826040517f64283d7b0000000000000000000000000000000000000000000000000000000081526004016109e4939291906127a3565b60405180910390fd5b50505050565b6109fb6112cc565b80600c9081610a0a9190612986565b5050565b610a166112cc565b6000600d60009054906101000a900473ffffffffffffffffffffffffffffffffffffffff1673ffffffffffffffffffffffffffffffffffffffff1647604051610a5e90612a89565b60006040518083038185875af1925050503d8060008114610a9b576040519150601f19603f3d011682016040523d82523d6000602084013e610aa0565b606091505b5050905080610ae4576040517f08c379a0000000000000000000000000000000000000000000000000000000008152600401610adb90612aea565b60405180910390fd5b50565b610b0283838360405180602001604052806000815250610faa565b505050565b600a5481565b6000610b18826111ed565b9050919050565b60085481565b610b2d6112cc565b8060096000828254610b3f9190612b39565b9250508190555050565b60008073ffffffffffffffffffffffffffffffffffffffff168273ffffffffffffffffffffffffffffffffffffffff1603610bbc5760006040517f89c62b64000000000000000000000000000000000000000000000000000000008152600401610bb3919061225b565b60405180910390fd5b600360008373ffffffffffffffffffffffffffffffffffffffff1673ffffffffffffffffffffffffffffffffffffffff168152602001908152602001600020549050919050565b610c0b6112cc565b610c15600061156d565b565b600d60009054906101000a900473ffffffffffffffffffffffffffffffffffffffff1681565b6000600660009054906101000a900473ffffffffffffffffffffffffffffffffffffffff16905090565b610c6f6112cc565b80600d60006101000a81548173ffffffffffffffffffffffffffffffffffffffff021916908373ffffffffffffffffffffffffffffffffffffffff16021790555050565b606060018054610cc290612772565b80601f0160208091040260200160405190810160405280929190818152602001828054610cee90612772565b8015610d3b5780601f10610d1057610100808354040283529160200191610d3b565b820191906000526020600020905b815481529060010190602001808311610d1e57829003601f168201915b5050505050905090565b60095481600754610d569190612b39565b1115610d97576040517f08c379a0000000000000000000000000000000000000000000000000000000008152600401610d8e90612bb9565b60405180910390fd5b80600854610da59190612bd9565b341015610de7576040517f08c379a0000000000000000000000000000000000000000000000000000000008152600401610dde90612c67565b60405180910390fd5b600b60009054906101000a900460ff1680610e345750610e05610c3d565b73ffffffffffffffffffffffffffffffffffffffff163373ffffffffffffffffffffffffffffffffffffffff16145b610e73576040517f08c379a0000000000000000000000000000000000000000000000000000000008152600401610e6a90612cd3565b60405180910390fd5b600a5481600e60003373ffffffffffffffffffffffffffffffffffffffff1673ffffffffffffffffffffffffffffffffffffffff16815260200190815260200160002054610ec19190612b39565b1115610f02576040517f08c379a0000000000000000000000000000000000000000000000000000000008152600401610ef990612d3f565b60405180910390fd5b60005b81811015610f3a57610f2d3360076000815480929190610f2490612d5f565b91905055611633565b8080600101915050610f05565b5080600e60003373ffffffffffffffffffffffffffffffffffffffff1673ffffffffffffffffffffffffffffffffffffffff1681526020019081526020016000206000828254610f8a9190612b39565b9250508190555050565b610fa6610f9f6112b2565b8383611651565b5050565b610fb58484846108f1565b610fc9610fc06112b2565b858585856117c0565b50505050565b6060610fda826111ed565b506000600c8054610fea90612772565b9050116110065760405180602001604052806000815250611032565b600c61101183611971565b604051602001611022929190612e66565b6040516020818303038152906040525b9050919050565b600e6020528060005260406000206000915090505481565b60095481565b6000600560008473ffffffffffffffffffffffffffffffffffffffff1673ffffffffffffffffffffffffffffffffffffffff16815260200190815260200160002060008373ffffffffffffffffffffffffffffffffffffffff1673ffffffffffffffffffffffffffffffffffffffff16815260200190815260200160002060009054906101000a900460ff16905092915050565b6110f36112cc565b600073ffffffffffffffffffffffffffffffffffffffff168173ffffffffffffffffffffffffffffffffffffffff16036111655760006040517f1e4fbdf700000000000000000000000000000000000000000000000000000000815260040161115c919061225b565b60405180910390fd5b61116e8161156d565b50565b6111796112cc565b8060088190555050565b60007f01ffc9a7000000000000000000000000000000000000000000000000000000007bffffffffffffffffffffffffffffffffffffffffffffffffffffffff1916827bffffffffffffffffffffffffffffffffffffffffffffffffffffffff1916149050919050565b6000806111f983611a3f565b9050600073ffffffffffffffffffffffffffffffffffffffff168173ffffffffffffffffffffffffffffffffffffffff160361126c57826040517f7e27328900000000000000000000000000000000000000000000000000000000815260040161126391906122f1565b60405180910390fd5b80915050919050565b60006004600083815260200190815260200160002060009054906101000a900473ffffffffffffffffffffffffffffffffffffffff169050919050565b600033905090565b6112c78383836001611a7c565b505050565b6112d46112b2565b73ffffffffffffffffffffffffffffffffffffffff166112f2610c3d565b73ffffffffffffffffffffffffffffffffffffffff1614611351576113156112b2565b6040517f118cdaa7000000000000000000000000000000000000000000000000000000008152600401611348919061225b565b60405180910390fd5b565b60008061135f84611a3f565b9050600073ffffffffffffffffffffffffffffffffffffffff168373ffffffffffffffffffffffffffffffffffffffff16146113a1576113a0818486611c41565b5b600073ffffffffffffffffffffffffffffffffffffffff168173ffffffffffffffffffffffffffffffffffffffff1614611432576113e3600085600080611a7c565b6001600360008373ffffffffffffffffffffffffffffffffffffffff1673ffffffffffffffffffffffffffffffffffffffff168152602001908152602001600020600082825403925050819055505b600073ffffffffffffffffffffffffffffffffffffffff168573ffffffffffffffffffffffffffffffffffffffff16146114b5576001600360008773ffffffffffffffffffffffffffffffffffffffff1673ffffffffffffffffffffffffffffffffffffffff168152602001908152602001600020600082825401925050819055505b846002600086815260200190815260200160002060006101000a81548173ffffffffffffffffffffffffffffffffffffffff021916908373ffffffffffffffffffffffffffffffffffffffff160217905550838573ffffffffffffffffffffffffffffffffffffffff168273ffffffffffffffffffffffffffffffffffffffff167fddf252ad1be2c89b69c2b068fc378daa952ba7f163c4a11628f55a4df523b3ef60405160405180910390a4809150509392505050565b6000600660009054906101000a900473ffffffffffffffffffffffffffffffffffffffff16905081600660006101000a81548173ffffffffffffffffffffffffffffffffffffffff021916908373ffffffffffffffffffffffffffffffffffffffff1602179055508173ffffffffffffffffffffffffffffffffffffffff168173ffffffffffffffffffffffffffffffffffffffff167f8be0079c531659141344cd1fd0a4f28419497f9722a3daafe3b4186f6b6457e060405160405180910390a35050565b61164d828260405180602001604052806000815250611d05565b5050565b600073ffffffffffffffffffffffffffffffffffffffff168273ffffffffffffffffffffffffffffffffffffffff16036116c257816040517f5b08ba180000000000000000000000000000000000000000000000000000000081526004016116b9919061225b565b60405180910390fd5b80600560008573ffffffffffffffffffffffffffffffffffffffff1673ffffffffffffffffffffffffffffffffffffffff16815260200190815260200160002060008473ffffffffffffffffffffffffffffffffffffffff1673ffffffffffffffffffffffffffffffffffffffff16815260200190815260200160002060006101000a81548160ff0219169083151502179055508173ffffffffffffffffffffffffffffffffffffffff168373ffffffffffffffffffffffffffffffffffffffff167f17307eab39ab6107e8899845ad3d59bd9653f200f220920489ca2b5937696c31836040516117b39190612051565b60405180910390a3505050565b60008373ffffffffffffffffffffffffffffffffffffffff163b111561196a578273ffffffffffffffffffffffffffffffffffffffff1663150b7a02868685856040518563ffffffff1660e01b815260040161181f9493929190612edf565b6020604051808303816000875af192505050801561185b57506040513d601f19601f820116820180604052508101906118589190612f40565b60015b6118df573d806000811461188b576040519150601f19603f3d011682016040523d82523d6000602084013e611890565b606091505b5060008151036118d757836040517f64a0ae920000000000000000000000000000000000000000000000000000000081526004016118ce919061225b565b60405180910390fd5b805181602001fd5b63150b7a0260e01b7bffffffffffffffffffffffffffffffffffffffffffffffffffffffff1916817bffffffffffffffffffffffffffffffffffffffffffffffffffffffff19161461196857836040517f64a0ae9200000000000000000000000000000000000000000000000000000000815260040161195f919061225b565b60405180910390fd5b505b5050505050565b60606000600161198084611d29565b01905060008167ffffffffffffffff81111561199f5761199e6123c2565b5b6040519080825280601f01601f1916602001820160405280156119d15781602001600182028036833780820191505090505b509050600082602001820190505b600115611a34578080600190039150507f3031323334353637383961626364656600000000000000000000000000000000600a86061a8153600a8581611a2857611a27612f6d565b5b049450600085036119df575b819350505050919050565b60006002600083815260200190815260200160002060009054906101000a900473ffffffffffffffffffffffffffffffffffffffff169050919050565b8080611ab55750600073ffffffffffffffffffffffffffffffffffffffff168273ffffffffffffffffffffffffffffffffffffffff1614155b15611be9576000611ac5846111ed565b9050600073ffffffffffffffffffffffffffffffffffffffff168373ffffffffffffffffffffffffffffffffffffffff1614158015611b3057508273ffffffffffffffffffffffffffffffffffffffff168173ffffffffffffffffffffffffffffffffffffffff1614155b8015611b435750611b418184611057565b155b15611b8557826040517fa9fbf51f000000000000000000000000000000000000000000000000000000008152600401611b7c919061225b565b60405180910390fd5b8115611be757838573ffffffffffffffffffffffffffffffffffffffff168273ffffffffffffffffffffffffffffffffffffffff167f8c5be1e5ebec7d5bd14f71427d1e84f3dd0314c0f7b2291e5b200ac8c7c3b92560405160405180910390a45b505b836004600085815260200190815260200160002060006101000a81548173ffffffffffffffffffffffffffffffffffffffff021916908373ffffffffffffffffffffffffffffffffffffffff16021790555050505050565b611c4c838383611e7c565b611d0057600073ffffffffffffffffffffffffffffffffffffffff168373ffffffffffffffffffffffffffffffffffffffff1603611cc157806040517f7e273289000000000000000000000000000000000000000000000000000000008152600401611cb891906122f1565b60405180910390fd5b81816040517f177e802f000000000000000000000000000000000000000000000000000000008152600401611cf7929190612f9c565b60405180910390fd5b505050565b611d0f8383611f3d565b611d24611d1a6112b2565b60008585856117c0565b505050565b600080600090507a184f03e93ff9f4daa797ed6e38ed64bf6a1f0100000000000000008310611d87577a184f03e93ff9f4daa797ed6e38ed64bf6a1f0100000000000000008381611d7d57611d7c612f6d565b5b0492506040810190505b6d04ee2d6d415b85acef81000000008310611dc4576d04ee2d6d415b85acef81000000008381611dba57611db9612f6d565b5b0492506020810190505b662386f26fc100008310611df357662386f26fc100008381611de957611de8612f6d565b5b0492506010810190505b6305f5e1008310611e1c576305f5e1008381611e1257611e11612f6d565b5b0492506008810190505b6127108310611e41576127108381611e3757611e36612f6d565b5b0492506004810190505b60648310611e645760648381611e5a57611e59612f6d565b5b0492506002810190505b600a8310611e73576001810190505b80915050919050565b60008073ffffffffffffffffffffffffffffffffffffffff168373ffffffffffffffffffffffffffffffffffffffff1614158015611f3457508273ffffffffffffffffffffffffffffffffffffffff168473ffffffffffffffffffffffffffffffffffffffff161480611ef55750611ef48484611057565b5b80611f3357508273ffffffffffffffffffffffffffffffffffffffff16611f1b83611275565b73ffffffffffffffffffffffffffffffffffffffff16145b5b90509392505050565b600073ffffffffffffffffffffffffffffffffffffffff168273ffffffffffffffffffffffffffffffffffffffff1603611faf5760006040517f64a0ae92000000000000000000000000000000000000000000000000000000008152600401611fa6919061225b565b60405180910390fd5b6000611fbd83836000611353565b9050600073ffffffffffffffffffffffffffffffffffffffff168173ffffffffffffffffffffffffffffffffffffffff16146120315760006040517f73c6ac6e000000000000000000000000000000000000000000000000000000008152600401612028919061225b565b60405180910390fd5b505050565b60008115159050919050565b61204b81612036565b82525050565b60006020820190506120666000830184612042565b92915050565b6000604051905090565b600080fd5b600080fd5b60007fffffffff0000000000000000000000000000000000000000000000000000000082169050919050565b6120b581612080565b81146120c057600080fd5b50565b6000813590506120d2816120ac565b92915050565b6000602082840312156120ee576120ed612076565b5b60006120fc848285016120c3565b91505092915050565b600081519050919050565b600082825260208201905092915050565b60005b8381101561213f578082015181840152602081019050612124565b60008484015250505050565b6000601f19601f8301169050919050565b600061216782612105565b6121718185612110565b9350612181818560208601612121565b61218a8161214b565b840191505092915050565b600060208201905081810360008301526121af818461215c565b905092915050565b6000819050919050565b6121ca816121b7565b81146121d557600080fd5b50565b6000813590506121e7816121c1565b92915050565b60006020828403121561220357612202612076565b5b6000612211848285016121d8565b91505092915050565b600073ffffffffffffffffffffffffffffffffffffffff82169050919050565b60006122458261221a565b9050919050565b6122558161223a565b82525050565b6000602082019050612270600083018461224c565b92915050565b61227f8161223a565b811461228a57600080fd5b50565b60008135905061229c81612276565b92915050565b600080604083850312156122b9576122b8612076565b5b60006122c78582860161228d565b92505060206122d8858286016121d8565b9150509250929050565b6122eb816121b7565b82525050565b600060208201905061230660008301846122e2565b92915050565b61231581612036565b811461232057600080fd5b50565b6000813590506123328161230c565b92915050565b60006020828403121561234e5761234d612076565b5b600061235c84828501612323565b91505092915050565b60008060006060848603121561237e5761237d612076565b5b600061238c8682870161228d565b935050602061239d8682870161228d565b92505060406123ae868287016121d8565b9150509250925092565b600080fd5b600080fd5b7f4e487b7100000000000000000000000000000000000000000000000000000000600052604160045260246000fd5b6123fa8261214b565b810181811067ffffffffffffffff82111715612419576124186123c2565b5b80604052505050565b600061242c61206c565b905061243882826123f1565b919050565b600067ffffffffffffffff821115612458576124576123c2565b5b6124618261214b565b9050602081019050919050565b82818337600083830152505050565b600061249061248b8461243d565b612422565b9050828152602081018484840111156124ac576124ab6123bd565b5b6124b784828561246e565b509392505050565b600082601f8301126124d4576124d36123b8565b5b81356124e484826020860161247d565b91505092915050565b60006020828403121561250357612502612076565b5b600082013567ffffffffffffffff8111156125215761252061207b565b5b61252d848285016124bf565b91505092915050565b60006020828403121561254c5761254b612076565b5b600061255a8482850161228d565b91505092915050565b600061256e8261221a565b9050919050565b61257e81612563565b82525050565b60006020820190506125996000830184612575565b92915050565b600080604083850312156125b6576125b5612076565b5b60006125c48582860161228d565b92505060206125d585828601612323565b9150509250929050565b600067ffffffffffffffff8211156125fa576125f96123c2565b5b6126038261214b565b9050602081019050919050565b600061262361261e846125df565b612422565b90508281526020810184848401111561263f5761263e6123bd565b5b61264a84828561246e565b509392505050565b600082601f830112612667576126666123b8565b5b8135612677848260208601612610565b91505092915050565b6000806000806080858703121561269a57612699612076565b5b60006126a88782880161228d565b94505060206126b98782880161228d565b93505060406126ca878288016121d8565b925050606085013567ffffffffffffffff8111156126eb576126ea61207b565b5b6126f787828801612652565b91505092959194509250565b6000806040838503121561271a57612719612076565b5b60006127288582860161228d565b92505060206127398582860161228d565b9150509250929050565b7f4e487b7100000000000000000000000000000000000000000000000000000000600052602260045260246000fd5b6000600282049050600182168061278a57607f821691505b60208210810361279d5761279c612743565b5b50919050565b60006060820190506127b8600083018661224c565b6127c560208301856122e2565b6127d2604083018461224c565b949350505050565b60008190508160005260206000209050919050565b60006020601f8301049050919050565b600082821b905092915050565b60006008830261283c7fffffffffffffffffffffffffffffffffffffffffffffffffffffffffffffffff826127ff565b61284686836127ff565b95508019841693508086168417925050509392505050565b6000819050919050565b600061288361287e612879846121b7565b61285e565b6121b7565b9050919050565b6000819050919050565b61289d83612868565b6128b16128a98261288a565b84845461280c565b825550505050565b600090565b6128c66128b9565b6128d1818484612894565b505050565b5b818110156128f5576128ea6000826128be565b6001810190506128d7565b5050565b601f82111561293a5761290b816127da565b612914846127ef565b81016020851015612923578190505b61293761292f856127ef565b8301826128d6565b50505b505050565b600082821c905092915050565b600061295d6000198460080261293f565b1980831691505092915050565b6000612976838361294c565b9150826002028217905092915050565b61298f82612105565b67ffffffffffffffff8111156129a8576129a76123c2565b5b6129b28254612772565b6129bd8282856128f9565b600060209050601f8311600181146129f057600084156129de578287015190505b6129e8858261296a565b865550612a50565b601f1984166129fe866127da565b60005b82811015612a2657848901518255600182019150602085019450602081019050612a01565b86831015612a435784890151612a3f601f89168261294c565b8355505b6001600288020188555050505b505050505050565b600081905092915050565b50565b6000612a73600083612a58565b9150612a7e82612a63565b600082019050919050565b6000612a9482612a66565b9150819050919050565b7f5769746864726177616c206661696c6564000000000000000000000000000000600082015250565b6000612ad4601183612110565b9150612adf82612a9e565b602082019050919050565b60006020820190508181036000830152612b0381612ac7565b9050919050565b7f4e487b7100000000000000000000000000000000000000000000000000000000600052601160045260246000fd5b6000612b44826121b7565b9150612b4f836121b7565b9250828201905080821115612b6757612b66612b0a565b5b92915050565b7f4d617820737570706c7920726561636865640000000000000000000000000000600082015250565b6000612ba3601283612110565b9150612bae82612b6d565b602082019050919050565b60006020820190508181036000830152612bd281612b96565b9050919050565b6000612be4826121b7565b9150612bef836121b7565b9250828202612bfd816121b7565b91508282048414831517612c1457612c13612b0a565b5b5092915050565b7f496e73756666696369656e742066756e64730000000000000000000000000000600082015250565b6000612c51601283612110565b9150612c5c82612c1b565b602082019050919050565b60006020820190508181036000830152612c8081612c44565b9050919050565b7f5075626c6963206d696e74206973206e6f7420656e61626c6564000000000000600082015250565b6000612cbd601a83612110565b9150612cc882612c87565b602082019050919050565b60006020820190508181036000830152612cec81612cb0565b9050919050565b7f4d6178207065722077616c6c6574207265616368656400000000000000000000600082015250565b6000612d29601683612110565b9150612d3482612cf3565b602082019050919050565b60006020820190508181036000830152612d5881612d1c565b9050919050565b6000612d6a826121b7565b91507fffffffffffffffffffffffffffffffffffffffffffffffffffffffffffffffff8203612d9c57612d9b612b0a565b5b600182019050919050565b600081905092915050565b60008154612dbf81612772565b612dc98186612da7565b94506001821660008114612de45760018114612df957612e2c565b60ff1983168652811515820286019350612e2c565b612e02856127da565b60005b83811015612e2457815481890152600182019150602081019050612e05565b838801955050505b50505092915050565b6000612e4082612105565b612e4a8185612da7565b9350612e5a818560208601612121565b80840191505092915050565b6000612e728285612db2565b9150612e7e8284612e35565b91508190509392505050565b600081519050919050565b600082825260208201905092915050565b6000612eb182612e8a565b612ebb8185612e95565b9350612ecb818560208601612121565b612ed48161214b565b840191505092915050565b6000608082019050612ef4600083018761224c565b612f01602083018661224c565b612f0e60408301856122e2565b8181036060830152612f208184612ea6565b905095945050505050565b600081519050612f3a816120ac565b92915050565b600060208284031215612f5657612f55612076565b5b6000612f6484828501612f2b565b91505092915050565b7f4e487b7100000000000000000000000000000000000000000000000000000000600052601260045260246000fd5b6000604082019050612fb1600083018561224c565b612fbe60208301846122e2565b939250505056fea26469706673582212204898d473ca8e6c0cca8e0a8b1ade851f27c0fd994e62fbd3345cf7ca35b6058264736f6c634300081c0033",
  "devdoc": {
    "details": "NFTERC721 ",
    "errors": {
      "ERC721IncorrectOwner(address,uint256,address)": [
        {
          "details": "Indicates an error related to the ownership over a particular token. Used in transfers.",
          "params": {
            "owner": "Address of the current owner of a token.",
            "sender": "Address whose tokens are being transferred.",
            "tokenId": "Identifier number of a token."
          }
        }
      ],
      "ERC721InsufficientApproval(address,uint256)": [
        {
          "details": "Indicates a failure with the `operator`s approval. Used in transfers.",
          "params": {
            "operator": "Address that may be allowed to operate on tokens without being their owner.",
            "tokenId": "Identifier number of a token."
          }
        }
      ],
      "ERC721InvalidApprover(address)": [
        {
          "details": "Indicates a failure with the `approver` of a token to be approved. Used in approvals.",
          "params": {
            "approver": "Address initiating an approval operation."
          }
        }
      ],
      "ERC721InvalidOperator(address)": [
        {
          "details": "Indicates a failure with the `operator` to be approved. Used in approvals.",
          "params": {
            "operator": "Address that may be allowed to operate on tokens without being their owner."
          }
        }
      ],
      "ERC721InvalidOwner(address)": [
        {
          "details": "Indicates that an address can't be an owner. For example, `address(0)` is a forbidden owner in ERC-20. Used in balance queries.",
          "params": {
            "owner": "Address of the current owner of a token."
          }
        }
      ],
      "ERC721InvalidReceiver(address)": [
        {
          "details": "Indicates a failure with the token `receiver`. Used in transfers.",
          "params": {
            "receiver": "Address to which tokens are being transferred."
          }
        }
      ],
      "ERC721InvalidSender(address)": [
        {
          "details": "Indicates a failure with the token `sender`. Used in transfers.",
          "params": {
            "sender": "Address whose tokens are being transferred."
          }
        }
      ],
      "ERC721NonexistentToken(uint256)": [
        {
          "details": "Indicates a `tokenId` whose `owner` is the zero address.",
          "params": {
            "tokenId": "Identifier number of a token."
          }
        }
      ],
      "OwnableInvalidOwner(address)": [
        {
          "details": "The owner is not a valid owner account. (eg. `address(0)`)"
        }
      ],
      "OwnableUnauthorizedAccount(address)": [
        {
          "details": "The caller account is not authorized to perform an operation."
        }
      ]
    },
    "events": {
      "Approval(address,address,uint256)": {
        "details": "Emitted when `owner` enables `approved` to manage the `tokenId` token."
      },
      "ApprovalForAll(address,address,bool)": {
        "details": "Emitted when `owner` enables or disables (`approved`) `operator` to manage all of its assets."
      },
      "Transfer(address,address,uint256)": {
        "details": "Emitted when `tokenId` token is transferred from `from` to `to`."
      }
    },
    "kind": "dev",
    "methods": {
      "approve(address,uint256)": {
        "details": "See {IERC721-approve}."
      },
      "balanceOf(address)": {
        "details": "See {IERC721-balanceOf}."
      },
      "constructor": {
        "details": " NFT 'RoboPunks''RP'"
      },
      "getApproved(uint256)": {
        "details": "See {IERC721-getApproved}."
      },
      "isApprovedForAll(address,address)": {
        "details": "See {IERC721-isApprovedForAll}."
      },
      "mint(uint256)": {
        "details": "NFT",
        "params": {
          "quantity": "NFT  1.  2. ETH 3.  4. "
        }
      },
      "name()": {
        "details": "See {IERC721Metadata-name}."
      },
      "owner()": {
        "details": "Returns the address of the current owner."
      },
      "ownerOf(uint256)": {
        "details": "See {IERC721-ownerOf}."
      },
      "renounceOwnership()": {
        "details": "Leaves the contract without owner. It will not be possible to call `onlyOwner` functions. Can only be called by the current owner. NOTE: Renouncing ownership will leave the contract without an owner, thereby disabling any functionality that is only available to the owner."
      },
      "safeTransferFrom(address,address,uint256)": {
        "details": "See {IERC721-safeTransferFrom}."
      },
      "safeTransferFrom(address,address,uint256,bytes)": {
        "details": "See {IERC721-safeTransferFrom}."
      },
      "setApprovalForAll(address,bool)": {
        "details": "See {IERC721-setApprovalForAll}."
      },
      "setBaseTokenURI(string)": {
        "details": "NFTURI",
        "params": {
          "_baseTokenURI": "URI"
        }
      },
      "setIsPublicMintEnabled(bool)": {
        "details": "",
        "params": {
          "_isPublicMintEnabled": ""
        }
      },
      "setMaxSupply(uint256)": {
        "details": "",
        "params": {
          "_maxSupply": ""
        }
      },
      "setMintPrice(uint256)": {
        "details": "",
        "params": {
          "_mintPrice": ""
        }
      },
      "supportsInterface(bytes4)": {
        "details": "See {IERC165-supportsInterface}."
      },
      "symbol()": {
        "details": "See {IERC721Metadata-symbol}."
      },
      "tokenURI(uint256)": {
        "details": "tokenIdURI",
        "params": {
          "tokenId": "NFT"
        },
        "returns": {
          "_0": "token URI"
        }
      },
      "transferFrom(address,address,uint256)": {
        "details": "See {IERC721-transferFrom}."
      },
      "transferOwnership(address)": {
        "details": "Transfers ownership of the contract to a new account (`newOwner`). Can only be called by the current owner."
      },
      "withdraw()": {
        "details": "ETH "
      }
    },
    "title": "RoboPunksNFT",
    "version": 1
  },
  "userdoc": {
    "kind": "user",
    "methods": {},
    "version": 1
  },
  "storageLayout": {
    "storage": [
      {
        "astId": 317,
        "contract": "contracts/RoboPunksNFT.sol:RoboPunksNFT",
        "label": "_name",
        "offset": 0,
        "slot": "0",
        "type": "t_string_storage"
      },
      {
        "astId": 319,
        "contract": "contracts/RoboPunksNFT.sol:RoboPunksNFT",
        "label": "_symbol",
        "offset": 0,
        "slot": "1",
        "type": "t_string_storage"
      },
      {
        "astId": 323,
        "contract": "contracts/RoboPunksNFT.sol:RoboPunksNFT",
        "label": "_owners",
        "offset": 0,
        "slot": "2",
        "type": "t_mapping(t_uint256,t_address)"
      },
      {
        "astId": 327,
        "contract": "contracts/RoboPunksNFT.sol:RoboPunksNFT",
        "label": "_balances",
        "offset": 0,
        "slot": "3",
        "type": "t_mapping(t_address,t_uint256)"
      },
      {
        "astId": 331,
        "contract": "contracts/RoboPunksNFT.sol:RoboPunksNFT",
        "label": "_tokenApprovals",
        "offset": 0,
        "slot": "4",
        "type": "t_mapping(t_uint256,t_address)"
      },
      {
        "astId": 337,
        "contract": "contracts/RoboPunksNFT.sol:RoboPunksNFT",
        "label": "_operatorApprovals",
        "offset": 0,
        "slot": "5",
        "type": "t_mapping(t_address,t_mapping(t_address,t_bool))"
      },
      {
        "astId": 8,
        "contract": "contracts/RoboPunksNFT.sol:RoboPunksNFT",
        "label": "_owner",
        "offset": 0,
        "slot": "6",
        "type": "t_address"
      },
      {
        "astId": 6326,
        "contract": "contracts/RoboPunksNFT.sol:RoboPunksNFT",
        "label": "totalSupply",
        "offset": 0,
        "slot": "7",
        "type": "t_uint256"
      },
      {
        "astId": 6328,
        "contract": "contracts/RoboPunksNFT.sol:RoboPunksNFT",
        "label": "mintPrice",
        "offset": 0,
        "slot": "8",
        "type": "t_uint256"
      },
      {
        "astId": 6330,
        "contract": "contracts/RoboPunksNFT.sol:RoboPunksNFT",
        "label": "maxSupply",
        "offset": 0,
        "slot": "9",
        "type": "t_uint256"
      },
      {
        "astId": 6332,
        "contract": "contracts/RoboPunksNFT.sol:RoboPunksNFT",
        "label": "maxPerWallet",
        "offset": 0,
        "slot": "10",
        "type": "t_uint256"
      },
      {
        "astId": 6334,
        "contract": "contracts/RoboPunksNFT.sol:RoboPunksNFT",
        "label": "isPublicMintEnabled",
        "offset": 0,
        "slot": "11",
        "type": "t_bool"
      },
      {
        "astId": 6336,
        "contract": "contracts/RoboPunksNFT.sol:RoboPunksNFT",
        "label": "baseTokenURI",
        "offset": 0,
        "slot": "12",
        "type": "t_string_storage"
      },
      {
        "astId": 6338,
        "contract": "contracts/RoboPunksNFT.sol:RoboPunksNFT",
        "label": "withdrawWallet",
        "offset": 0,
        "slot": "13",
        "type": "t_address_payable"
      },
      {
        "astId": 6342,
        "contract": "contracts/RoboPunksNFT.sol:RoboPunksNFT",
        "label": "walletMinted",
        "offset": 0,
        "slot": "14",
        "type": "t_mapping(t_address,t_uint256)"
      }
    ],
    "types": {
      "t_address": {
        "encoding": "inplace",
        "label": "address",
        "numberOfBytes": "20"
      },
      "t_address_payable": {
        "encoding": "inplace",
        "label": "address payable",
        "numberOfBytes": "20"
      },
      "t_bool": {
        "encoding": "inplace",
        "label": "bool",
        "numberOfBytes": "1"
      },
      "t_mapping(t_address,t_bool)": {
        "encoding": "mapping",
        "key": "t_address",
        "label": "mapping(address => bool)",
        "numberOfBytes": "32",
        "value": "t_bool"
      },
      "t_mapping(t_address,t_mapping(t_address,t_bool))": {
        "encoding": "mapping",
        "key": "t_address",
        "label": "mapping(address => mapping(address => bool))",
        "numberOfBytes": "32",
        "value": "t_mapping(t_address,t_bool)"
      },
      "t_mapping(t_address,t_uint256)": {
        "encoding": "mapping",
        "key": "t_address",
        "label": "mapping(address => uint256)",
        "numberOfBytes": "32",
        "value": "t_uint256"
      },
      "t_mapping(t_uint256,t_address)": {
        "encoding": "mapping",
        "key": "t_uint256",
        "label": "mapping(uint256 => address)",
        "numberOfBytes": "32",
        "value": "t_address"
      },
      "t_string_storage": {
        "encoding": "bytes",
        "label": "string",
        "numberOfBytes": "32"
      },
      "t_uint256": {
        "encoding": "inplace",
        "label": "uint256",
        "numberOfBytes": "32"
      }
    }
  }
}